{
  "contractName": "NIAGInfo",
  "abi": [
    {
      "constant": true,
      "inputs": [],
      "name": "name",
      "outputs": [
        {
          "name": "",
          "type": "string"
        }
      ],
      "payable": false,
      "stateMutability": "view",
      "type": "function"
    },
    {
      "constant": true,
      "inputs": [],
      "name": "decimals",
      "outputs": [
        {
          "name": "",
          "type": "uint8"
        }
      ],
      "payable": false,
      "stateMutability": "view",
      "type": "function"
    },
    {
      "constant": true,
      "inputs": [],
      "name": "symbol",
      "outputs": [
        {
          "name": "",
          "type": "string"
        }
      ],
      "payable": false,
      "stateMutability": "view",
      "type": "function"
    }
  ],
  "bytecode": "0x60806040526040805190810160405280600981526020017f4e494147546f6b656e00000000000000000000000000000000000000000000008152506000908051906020019061004f9291906100ca565b506040805190810160405280600481526020017f4e494147000000000000000000000000000000000000000000000000000000008152506001908051906020019061009b9291906100ca565b506008600260006101000a81548160ff021916908360ff1602179055503480156100c457600080fd5b5061016f565b828054600181600116156101000203166002900490600052602060002090601f016020900481019282601f1061010b57805160ff1916838001178555610139565b82800160010185558215610139579182015b8281111561013857825182559160200191906001019061011d565b5b509050610146919061014a565b5090565b61016c91905b80821115610168576000816000905550600101610150565b5090565b90565b6103288061017e6000396000f300608060405260043610610057576000357c0100000000000000000000000000000000000000000000000000000000900463ffffffff16806306fdde031461005c578063313ce567146100ec57806395d89b411461011d575b600080fd5b34801561006857600080fd5b506100716101ad565b6040518080602001828103825283818151815260200191508051906020019080838360005b838110156100b1578082015181840152602081019050610096565b50505050905090810190601f1680156100de5780820380516001836020036101000a031916815260200191505b509250505060405180910390f35b3480156100f857600080fd5b5061010161024b565b604051808260ff1660ff16815260200191505060405180910390f35b34801561012957600080fd5b5061013261025e565b6040518080602001828103825283818151815260200191508051906020019080838360005b83811015610172578082015181840152602081019050610157565b50505050905090810190601f16801561019f5780820380516001836020036101000a031916815260200191505b509250505060405180910390f35b60008054600181600116156101000203166002900480601f0160208091040260200160405190810160405280929190818152602001828054600181600116156101000203166002900480156102435780601f1061021857610100808354040283529160200191610243565b820191906000526020600020905b81548152906001019060200180831161022657829003601f168201915b505050505081565b600260009054906101000a900460ff1681565b60018054600181600116156101000203166002900480601f0160208091040260200160405190810160405280929190818152602001828054600181600116156101000203166002900480156102f45780601f106102c9576101008083540402835291602001916102f4565b820191906000526020600020905b8154815290600101906020018083116102d757829003601f168201915b5050505050815600a165627a7a723058203292a3b14508306c77c666f897310a3c1498561e172d6954249ce1ecef46f3600029",
  "source": "pragma solidity ^0.4.24;\n\nimport 'zeppelin-solidity/contracts/token/ERC20/CappedToken.sol';\nimport 'zeppelin-solidity/contracts/token/ERC20/BurnableToken.sol';\nimport './NIAGTimelock.sol';\n\ncontract NIAGInfo {\n\tuint internal constant INITIAL_SUPPLY = 320000000;\n  string public name = 'NIAGToken';\n  string public symbol = 'NIAG';\n  uint8 public decimals = 8;\n  address internal owner;\n}\n\ncontract NIAG is CappedToken(800000000), BurnableToken, NIAGInfo {\n  mapping (address => NIAGTimelock[]) timelockList;\n\tmapping (address => bool) public frozenAccount;\n\n\tevent FrozenFunds(address target, bool frozen);\n\tevent LockUp(address who, uint256 when, uint256 amount);\n\n\tevent Lock(NIAGTimelock[] lock);\n\tevent LogString(string str);\n\n  constructor() public {\n  \ttotalSupply_ = INITIAL_SUPPLY * 10 ** uint(decimals);\n    balances[msg.sender] = INITIAL_SUPPLY;\n    owner = msg.sender;\n  }\n\n  modifier isOwner {\n  \trequire(msg.sender == owner);\n    _;\n  }\n\n  modifier biggerThenZero(uint256 amount) {\n  \trequire(amount > 0);\n    _;\n  }\n\n\tmodifier isNotFrozen {\n\t\trequire(!frozenAccount[msg.sender]);\n\t\t_;\n\t}\n\n\t// add lockup\n  function lockUp(address _address, uint256 when, uint256 amount) public isOwner returns (bool) {\n  \ttimelockList[_address].push(new NIAGTimelock(this, _address, when, amount));\n\t\temit LockUp(_address, when, amount);\n\t\treturn true;\n  }\n\n\n\t// release lockup account single\n  function release(address _address) public {\n  \tNIAGTimelock[] memory locks = timelockList[_address];\n\t\temit Lock(locks);\n    for(uint j = 0; j < locks.length; j++) {\n\t\t\temit LogString(\"releaseSingle for inner\");\n      if(locks[j].releaseTime() >= block.timestamp) {\n\t\t\t\temit LogString(\"super.release() before\");\n      \tlocks[j].release();\n\t\t\t\temit LogString(\"super.release() after\");\n      }\n    }\n  }\n\n\t// mintable multi (need diferrent amount)\n  function mintMulti(address[] memory addresses, uint256 amount) public biggerThenZero(amount) {\n  \tfor(uint256 i = 0; i < addresses.length; i++) {\n    \tsuper.mint(addresses[i], amount);\n    }\n  }\n\n\t// single mint\n\tfunction mintSingle(address _address, uint256 amount) public biggerThenZero(amount) {\n  \tsuper.mint(_address, amount);\n  }\n\n\t// burn totalSupply\n  function burn(uint256 _value) public isOwner {\n    require(_value <= totalSupply_);\n  \tsuper.burn(_value);\n  }\n\n\t// @TODO: freeze source\n\tfunction freezeAccount(address _address) public isOwner {\n\t\t\trequire(frozenAccount[_address] == false);\n\t\t\tfrozenAccount[_address] = true;\n\t\t\temit FrozenFunds(_address, true);\n\t}\n\n\t// unfrozen\n\tfunction unFreezeAccount(address _address) public isOwner {\n\t\trequire(frozenAccount[_address] == true);\n\t\tfrozenAccount[_address] = false;\n\n\t\temit FrozenFunds(_address, false);\n\t}\n\n\t// transfer single\n  function transfer(address to, uint256 value) public isNotFrozen returns (bool) {\n    super.transfer(to, value);\n  }\n\n  // transfer multi\n  function transferMulti(address[] memory addresses, uint256[] memory values) public isNotFrozen returns (bool) {\n    require (addresses.length == values.length);\n    for (uint256 i = 0; i < addresses.length; i++) {\n      super.transfer(addresses[i], values[i]);\n  \t}\n    return true;\n  }\n}\n",
  "sourcePath": "/Users/arnoldyoo/Documents/smart-contract/niag/contracts/NIAG.sol",
  "compiler": {
    "name": "solc",
    "version": "0.4.24+commit.e67f0147.Emscripten.clang"
  },
  "schemaVersion": "2.0.1",
  "updatedAt": "2018-10-19T01:36:30.431Z"
}